:020000040800F2
:10000000000002207D0E0008E50D0008ED0D00083F
:10001000F50D0008FD0D0008050E000800000000A9
:100020000000000000000000000000000D0E0008AD
:100030001B0E000800000000290E0008370E000803
:10004000CD0E0008CD0E0008CD0E0008CD0E000824
:10005000CD0E0008CD0E0008CD0E0008CD0E000814
:10006000CD0E0008CD0E0008CD0E0008CD0E000804
:10007000CD0E0008CD0E0008CD0E0008CD0E0008F4
:10008000CD0E0008CD0E0008CD0E0008CD0E0008E4
:10009000CD0E0008CD0E0008CD0E0008CD0E0008D4
:1000A000CD0E0008CD0E0008CD0E0008CD0E0008C4
:1000B000CD0E0008CD0E0008CD0E0008450E00083C
:1000C000CD0E0008CD0E0008CD0E0008CD0E0008A4
:1000D000CD0E0008CD0E0008CD0E0008CD0E000894
:1000E000CD0E0008CD0E0008CD0E0008CD0E000884
:1000F000CD0E0008CD0E0008CD0E0008CD0E000874
:10010000CD0E0008CD0E0008CD0E0008CD0E000863
:10011000CD0E0008CD0E0008CD0E0008CD0E000853
:10012000CD0E0008CD0E0008CD0E0008CD0E000843
:10013000CD0E00080000000000000000CD0E0008F9
:10014000CD0E0008CD0E0008CD0E0008CD0E000823
:10015000CD0E0008CD0E0008CD0E0008CD0E000813
:10016000CD0E0008CD0E0008CD0E0008CD0E000803
:10017000CD0E0008CD0E0008CD0E000800000000D6
:1001800000000000CD0E000800000000000000008C
:10019000CD0E00080000000000000000CD0E000899
:1001A000000000000000000000000000CD0E00086C
:1001B000CD0E0008CD0E0008CD0E0008CD0E0008B3
:0401C000CD0E000858
:100200000348044B834202D0034B03B118477047A5
:100210000C0000200C000020000000000548064BE8
:100220001B1AD90F01EBA301491002D0034B03B1F4
:10023000184770470C0000200C0000200000000050
:1002400010B5064C237843B9FFF7DAFF044B13B11E
:100250000448AFF300800123237010BD0C00002080
:10026000000000003850000808B5044B1BB10449D9
:100270000448AFF30080BDE80840CFE7000000006D
:10028000100000203850000870B50F4B0F4DAB42E6
:10029000A3EB050607D0B610002455F8043B013443
:1002A0009847A642F9D804F0C7FE094D094B5E1BDA
:1002B000AB424FEAA60606D0002455F8043B0134B1
:1002C0009847A642F9D870BDF8500008F8500008C9
:1002D000F8500008FC50000800000000000000007A
:1002E000000000000000000000000000000000000E
:1002F00000000000000000000000000000000000FE
:1003000030B490F800F020F007016FF0000C10F00E
:10031000070491F820F040F048804FF000046FF09F
:100320000700D1E9002391F840F000F1080082FABB
:100330004CF2A4FA8CF283FA4CF3A2FA8CF34BBB86
:10034000D1E9022382FA4CF200F10800A4FA8CF2FF
:1003500083FA4CF3A2FA8CF3E3B9D1E9042382FACD
:100360004CF200F10800A4FA8CF283FA4CF3A2FAE2
:100370008CF37BB9D1E9062301F1200182FA4CF21A
:1003800000F10800A4FA8CF283FA4CF3A2FA8CF381
:10039000002BC6D0002A04BF04301A4612BAB2FAA3
:1003A00082F200EBD20030BC7047D1E9002304F0A8
:1003B0000305C4F100004FEAC50514F0040F91F8DD
:1003C00040F00CFA05F562EA05021CBF63EA05037A
:1003D00062464FF00004AAE7830730B547D0541EA9
:1003E000002A3ED0CAB2034601E0013C39D303F8EB
:1003F000012B9D07F9D1032C2CD9CDB205EB052596
:100400000F2C05EB054535D9A4F1100222F00F0C95
:1004100003F1100EE6444FEA121C1A46C2E90055D9
:10042000C2E9025510327245F8D10CF1010214F004
:100430000C0F03EB021204F00F0C13D0ACF1040309
:1004400023F003030433134442F8045B9342FBD1CB
:100450000CF003042CB1C9B21C4403F8011BA342E5
:10046000FBD130BD64461346002CF4D1F9E70346B6
:100470001446C0E71A46A446E0E700BF53B94AB99C
:10048000002908BF00281CBF4FF0FF314FF0FF309C
:1004900000F06AB9ADF1080C6DE904CE00F006F881
:1004A000DDF804E0DDE9022304B070472DE9F047F0
:1004B000089D0E4604460F46002B4AD194468C45B3
:1004C000B2FA82F260D942B1C2F12003974020FA19
:1004D00003F30CFA02FC1F4394404FEA1C4E1FFA30
:1004E0008CF6B7FBFEF1230C0EFB117743EA0743B2
:1004F00001FB06F098420AD91CEB030301F1FF3718
:1005000080F01581984240F21281023963441B1A2F
:10051000A4B2B3FBFEF00EFB103344EA034400FB2D
:1005200006F6A6420AD91CEB040400F1FF3380F062
:100530000081A64240F2FD806444023840EA014056
:10054000A41B00211DB1D4400023C5E90043BDE830
:10055000F0878B4205D90DB1C5E90001002108469D
:10056000F5E7B3FA83F1002946D1B34202D38242C0
:1005700000F2F580841A66EB030201201746002D75
:10058000E5D0C5E90047E2E7002A40F09380A1EBFF
:100590000C034FEA1C471FFA8CFE0121B3FBF7F650
:1005A00007FB1630230C43EA00430EFB06F098428B
:1005B00008D91CEB030306F1FF3802D2984200F27F
:1005C000D08046461B1AA4B2B3FBF7F007FB1033EA
:1005D00044EA03440EFB00FEA64508D91CEB0404C4
:1005E00000F1FF3302D2A64500F2B6801846A4EB14
:1005F0000E0440EA0640A5E7C1F120078B4022FA2D
:1006000007FC4CEA030C06FA01FE20FA07F426FA6E
:1006100007F344EA0E0400FA01F84FEA1C404FEADF
:100620001449B3FBF0FE1FFA8CF600FB1E3349EAB7
:1006300003430EFB06F9994502FA01F20BD91CEBB4
:1006400003030EF1FF3A80F08580994540F28280E5
:10065000AEF1020E6344A3EB0909A4B2B9FBF0F3B7
:1006600000FB139944EA094403FB06F6A64208D9A5
:100670001CEB040403F1FF3068D2A64266D9023BAA
:10068000644443EA0E40A41BA0FB02E6B442734656
:10069000B14652D34FD05DB1B8EB030264EB09040D
:1006A00004FA07F722FA01F31F43CC40C5E90074AE
:1006B00000214CE7C2F1200120FA01F30CFA02FC00
:1006C00026FA01F1964033434FEA1C471FFA8CFE8D
:1006D000B1FBF7F007FB1016190C41EA064100FBCD
:1006E0000EF68E4204FA02F408D91CEB010100F167
:1006F000FF382DD28E422BD902386144891B9BB220
:10070000B1FBF7F607FB161143EA014306FB0EF1B6
:10071000994208D91CEB030306F1FF3814D2994221
:1007200012D9023E63445B1A46EA004136E7394675
:10073000EDE6184602E7F045ADD2BEEB020366EBEC
:100740000C060138B146A6E74646ECE7034698E7B3
:100750004046D3E7D6467EE76444023847E708467A
:100760000DE7023E63442DE7704700BFB0B59AB075
:1007700002AF00F0ADFB00F07DF800F077F900F07B
:10078000E7F800F013F900F047F9314BFB65F86D1D
:10079000FFF7B6FD03469AB24FF0FF33F96D2D48CF
:1007A00004F08EF82C4B07F144041D460FCD0FC406
:1007B0002B68237007F144014FF0FF3310222748C4
:1007C00003F00DFE264B07F130041D460FCD0FC47C
:1007D0002B68237007F13002142300931023A0210B
:1007E000204801F055F8204BBB65B86DFFF788FD38
:1007F00003469AB24FF0FF33B96D164804F060F823
:100800001A4B07F118041D460FCD0FC495E80300DD
:1008100084E8030007F118014FF0FF3317220F4857
:1008200003F0DDFD124B3C461D460FCD0FC495E88D
:10083000030084E803003A46142300931723A02101
:10084000084801F025F8642000F0B4FB00BFCAE7B7
:1008500050500008D4000020805000087C00002088
:10086000945000082800002064500008A850000898
:10087000C050000880B594B000AF07F11C033422CB
:1008800000211846FFF7A8FD07F1080300221A60AF
:100890005A609A60DA601A6100237B602A4B1B6CF5
:1008A000294A43F080531364274B1B6C03F0805399
:1008B0007B607B6800233B60244B1B6823F4404330
:1008C000224A43F480431360204B1B6803F44043E7
:1008D0003B603B680223FB610123BB621023FB6288
:1008E00002237B630023BB631023FB634FF4A873D5
:1008F0003B6404237B640223BB640223FB6407F193
:100900001C03184603F044FA0346002B01D000F004
:100910002BF90F23BB600223FB6000233B614FF4E4
:1009200080537B610023BB6107F108030221184655
:1009300002F0E4FE0346002B01D000F015F900BFE1
:100940005037BD4680BD00BF0038024000700040F7
:1009500080B500AF124B134A1A60114B124A5A600D
:100960000F4B00229A600E4B0022DA600C4B4FF4C2
:1009700080421A610A4B00225A61094B00229A6197
:10098000074B0022DA61064B00221A62044800F08D
:1009900025FE0346002B01D000F0E6F800BF80BD25
:1009A0002800002000540040A086010080B500AF60
:1009B000174B184A1A60164B4FF482725A60144B48
:1009C00000229A60124B0022DA60114B00221A6159
:1009D0000F4B00225A610E4B4FF400729A610C4B80
:1009E0000022DA610A4B00221A62094B00225A6285
:1009F000074B00229A62064B0A22DA62044803F08F
:100A000065FC0346002B01D000F0AEF800BF80BDAE
:100A10007C0000200038004080B500AF114B124A26
:100A20001A60104B4FF4E1325A600E4B00229A606C
:100A30000C4B0022DA600B4B00221A61094B0C228E
:100A40005A61084B00229A61064B0022DA61054880
:100A500003F0E6FE0346002B01D000F085F800BF4E
:100A600080BD00BFD40000200010014080B58AB0D6
:100A700000AF07F1140300221A605A609A60DA602E
:100A80001A6100233B61354B1B6B344A43F004036E
:100A90001363324B1B6B03F004033B613B69002380
:100AA000FB602E4B1B6B2D4A43F0800313632B4BD3
:100AB0001B6B03F08003FB60FB680023BB60274BCC
:100AC0001B6B264A43F001031363244B1B6B03F09B
:100AD0000103BB60BB6800237B60204B1B6B1F4A7C
:100AE00043F0020313631D4B1B6B03F002037B6097
:100AF0007B68002220211A4800F056FD4FF4005375
:100B00007B614FF40413BB610023FB6107F1140305
:100B10001946144800F0B4FB0C237B610223BB612F
:100B20000023FB6103233B6207237B6207F114036D
:100B300019460B4800F0A4FB20237B610123BB6115
:100B40000023FB6100233B6207F1140319460448AC
:100B500000F096FB00BF2837BD4680BD003802403C
:100B6000000002400008024080B400AF72B600BF2F
:100B700000BFFDE780B582B000AF00237B60104B63
:100B80005B6C0F4A43F4804353640D4B5B6C03F47E
:100B900080437B607B6800233B60094B1B6C084AE9
:100BA00043F080531364064B1B6C03F080533B608F
:100BB0003B68072000F0F2FA00BF0837BD4680BD51
:100BC0000038024080B58AB000AF786007F11403A6
:100BD00000221A605A609A60DA601A617B681B68AA
:100BE0001D4A934234D100233B611C4B1B6B1B4AB3
:100BF00043F002031363194B1B6B03F002033B61C9
:100C00003B694FF440737B611223BB610123FB619D
:100C100003233B6204237B6207F114031946104847
:100C200000F02EFB0023FB600C4B1B6C0B4A43F4C3
:100C300000131364094B1B6C03F40013FB60FB6887
:100C4000002200211F2000F0B4FA1F2000F0CDFA8E
:100C500000BF2837BD4680BD005400400038024028
:100C60000004024080B58AB000AF786007F1140339
:100C700000221A605A609A60DA601A617B681B6809
:100C8000304A93425AD100233B612F4B1B6C2E4AB2
:100C900043F4804313642C4B1B6C03F480433B618F
:100CA0003B690023FB60284B1B6B274A43F004037E
:100CB0001363254B1B6B03F00403FB60FB680023ED
:100CC000BB60214B1B6B204A43F0020313631E4B96
:100CD0001B6B03F00203BB60BB6802237B61022332
:100CE000BB610023FB6103233B6207237B6207F1A7
:100CF00014031946154800F0C3FA04237B6102234C
:100D0000BB610023FB6103233B6205237B6207F188
:100D1000140319460D4800F0B3FA4FF480637B6169
:100D20000223BB610023FB6103233B6205237B623B
:100D300007F114031946064800F0A2FA00BF28374D
:100D4000BD4680BD00380040003802400008024027
:100D50000004024080B58AB000AF786007F1140348
:100D600000221A605A609A60DA601A617B681B6818
:100D7000194A93422CD100233B61184B5B6C174AF4
:100D800043F010035364154B5B6C03F010033B619D
:100D90003B690023FB60114B1B6B104A43F00103BE
:100DA00013630E4B1B6B03F00103FB60FB684FF4F6
:100DB000C0637B610223BB610023FB6103233B62B1
:100DC00007237B6207F114031946054800F058FA1F
:100DD00000BF2837BD4680BD0010014000380240EA
:100DE0000000024080B400AF00BFFDE780B400AF58
:100DF00000BFFDE780B400AF00BFFDE780B400AFE7
:100E000000BFFDE780B400AF00BFFDE780B400AFD6
:100E100000BFBD465DF8047B704780B400AF00BFE3
:100E2000BD465DF8047B704780B400AF00BFBD468F
:100E30005DF8047B704780B500AF00F09BF800BF01
:100E400080BD000080B500AF024800F01FFE00BF6B
:100E500080BD00BF2800002080B400AF064BD3F84F
:100E60008830054A43F47003C2F8883000BFBD469D
:100E70005DF8047B704700BF00ED00E0DFF834D080
:100E8000FFF7EAFF0C480D490D4A002302E0D45851
:100E9000C4500433C4188C42F9D30A4A0A4C0023C4
:100EA00001E013600432A242FBD3FFF7EDF9FFF734
:100EB0005DFC704700000220000000200C000020B4
:100EC000005100080C00002020010020FEE7000077
:100ED00080B500AF0E4B1B680D4A43F400731360DE
:100EE0000B4B1B680A4A43F480631360084B1B6872
:100EF000074A43F480731360032000F04FF9002089
:100F000000F008F8FFF736FE0023184680BD00BF4A
:100F1000003C024080B582B000AF7860124B1A6886
:100F2000124B1B7819464FF47A73B3FBF1F3B2FB03
:100F3000F3F3184600F067F90346002B01D00123B4
:100F40000EE07B680F2B0AD8002279684FF0FF3043
:100F500000F02FF9064A7B681360002300E00123AC
:100F600018460837BD4680BD00000020080000205C
:100F70000400002080B400AF064B1B781A46064BD5
:100F80001B681344044A136000BFBD465DF8047B30
:100F9000704700BF080000201C01002080B400AF93
:100FA000034B1B681846BD465DF8047B704700BFC5
:100FB0001C01002080B584B000AF7860FFF7EEFF21
:100FC000B8607B68FB60FB68B3F1FF3F05D00A4B5C
:100FD0001B781A46FB681344FB6000BFFFF7DEFF77
:100FE0000246BB68D31AFA689A42F7D800BF00BF1E
:100FF0001037BD4680BD00BF0800002080B485B01A
:1010000000AF78607B6803F00703FB600C4BDB6884
:10101000BB60BA684FF6FF031340BB60FB681A025F
:10102000BB68134343F0BF6343F40033BB60044A1F
:10103000BB68D36000BF1437BD465DF8047B7047C2
:1010400000ED00E080B400AF044BDB681B0A03F046
:1010500007031846BD465DF8047B704700ED00E0CD
:1010600080B483B000AF0346FB7197F90730002BC3
:101070000BDBFB7903F01F02074997F907305B0987
:10108000012000FA02F241F8232000BF0C37BD46D0
:101090005DF8047B704700BF00E100E080B483B0DE
:1010A00000AF03463960FB7197F90730002B0ADB6C
:1010B0003B68DAB20C4997F907301201D2B20B44FF
:1010C00083F800230AE03B68DAB20849FB7903F0B1
:1010D0000F03043B1201D2B20B441A7600BF0C3747
:1010E000BD465DF8047B704700E100E000ED00E0E4
:1010F00080B489B000AFF860B9607A60FB6803F033
:101100000703FB61FB69C3F10703042B28BF04231A
:10111000BB61FB690433062B02D9FB69033B00E08A
:1011200000237B614FF0FF32BB6902FA03F3DA431D
:10113000BB681A407B699A404FF0FF317B6901FA26
:1011400003F3D9437B680B40134318462437BD464D
:101150005DF8047B7047000080B582B000AF786016
:101160007B68013BB3F1807F01D301230FE00A4A82
:101170007B68013B53600F214FF0FF30FFF78EFF7C
:10118000054B00229A60044B07221A600023184680
:101190000837BD4680BD00BF10E000E080B582B0DA
:1011A00000AF78607868FFF729FF00BF0837BD46B9
:1011B00080BD80B586B000AF0346B9607A60FB732E
:1011C00000237B61FFF73EFF78617A68B968786930
:1011D000FFF78EFF024697F90F3011461846FFF7CA
:1011E0005DFF00BF1837BD4680BD80B582B000AF3F
:1011F0000346FB7197F907301846FFF731FF00BF30
:101200000837BD4680BD80B582B000AF7860786891
:10121000FFF7A2FF034618460837BD4680BD80B4DD
:1012200083B000AF78607B6893F83530DBB2022B77
:1012300004D07B6880225A6501230CE07B6805227C
:1012400083F835207B681B681A687B681B6822F06E
:1012500001021A60002318460C37BD465DF8047B76
:10126000704780B483B000AF78607B6893F8353006
:10127000DBB218460C37BD465DF8047B70470000B2
:1012800080B489B000AF7860396000237B610023AF
:101290003B610023BB610023FB6165E10122FB6927
:1012A00002FA03F37B613B681B687A6913403B6178
:1012B0003A697B699A4240F054813B685B6803F06D
:1012C0000303012B05D03B685B6803F00303022B8B
:1012D00030D17B689B68BB61FB695B00032202FA2B
:1012E00003F3DB43BA691340BB613B68DA68FB690F
:1012F0005B0002FA03F3BA691343BB617B68BA6906
:101300009A607B685B68BB610122FB6902FA03F3A8
:10131000DB43BA691340BB613B685B681B0903F0A0
:101320000102FB6902FA03F3BA691343BB617B68EC
:10133000BA695A603B685B6803F00303032B17D05C
:101340007B68DB68BB61FB695B00032202FA03F385
:10135000DB43BA691340BB613B689A68FB695B0079
:1013600002FA03F3BA691343BB617B68BA69DA60B6
:101370003B685B6803F00303022B23D1FB69DA08A7
:101380007B68083253F82230BB61FB6903F0070326
:101390009B000F2202FA03F3DB43BA691340BB61DF
:1013A0003B681A69FB6903F007039B0002FA03F329
:1013B000BA691343BB61FB69DA087B680832B96913
:1013C00043F822107B681B68BB61FB695B0003224A
:1013D00002FA03F3DB43BA691340BB613B685B6805
:1013E00003F00302FB695B0002FA03F3BA691343DB
:1013F000BB617B68BA691A603B685B6803F4403381
:10140000002B00F0AE800023FB605D4B5B6C5C4A00
:1014100043F4804353645A4B5B6C03F48043FB609A
:10142000FB68584AFB699B08023352F82330BB61C2
:10143000FB6903F003039B000F2202FA03F3DB4373
:10144000BA691340BB617B684F4A934225D07B68E1
:101450004E4A93421FD07B684D4A934219D07B6815
:101460004C4A934213D07B684B4A93420DD07B6821
:101470004A4A934207D07B68494A934201D10623E6
:101480000CE007230AE0052308E0042306E0032319
:1014900004E0022302E0012300E00023FA6902F0E5
:1014A000030292009340BA691343BB613549FB695B
:1014B0009B080233BA6941F823203A4B9B68BB6111
:1014C0003B69DB43BA691340BB613B685B6803F46B
:1014D0008013002B03D0BA693B691343BB61314AC7
:1014E000BB6993602F4BDB68BB613B69DB43BA6927
:1014F0001340BB613B685B6803F40013002B03D00F
:10150000BA693B691343BB61264ABB69D360254B6B
:101510005B68BB613B69DB43BA691340BB613B68F5
:101520005B6803F40033002B03D0BA693B691343B3
:10153000BB611C4ABB6953601A4B1B68BB613B69AA
:10154000DB43BA691340BB613B685B6803F48033DB
:10155000002B03D0BA693B691343BB61114ABB69D5
:101560001360FB690133FB61FB690F2B7FF696AEBD
:1015700000BF00BF2437BD465DF8047B704700BF45
:1015800000380240003801400000024000040240E0
:1015900000080240000C024000100240001402400B
:1015A00000180240003C014080B483B000AF786076
:1015B0000B467B8013467B707B78002B03D07A88A8
:1015C0007B689A6103E07B881A047B689A6100BF9C
:1015D0000C37BD465DF8047B7047000080B584B0D1
:1015E00000AF78607B68002B01D101232BE17B6881
:1015F00093F83D30DBB2002B06D17B68002283F8E4
:101600003C207868FFF7DEFA7B68242283F83D20CF
:101610007B681B681A687B681B6822F001021A60ED
:101620007B681B681A687B681B6842F400421A607A
:101630007B681B681A687B681B6822F400421A608A
:1016400002F04EF9F8607B685B68814A934207D8E4
:10165000FB68804A934294BF01230023DBB206E07B
:10166000FB687D4A934294BF01230023DBB2002B29
:1016700001D00123E7E0FB68784AA2FB03239B0C1F
:10168000BB607B681B685B6823F03F017B681B685D
:10169000BA680A435A607B681B681B6A23F03F01E3
:1016A0007B685B686A4A934202D8BB68013309E0F1
:1016B000BB684FF4967202FB03F3694AA2FB032353
:1016C0009B0901337A6812680B4313627B681B68BD
:1016D000DB6923F44F4222F0FF027B685B685C49C0
:1016E0008B4219D8FB68591E7B685B685B00B1FBB5
:1016F000F3F3591C40F6FC730B40002B0AD0FB6837
:10170000591E7B685B685B00B1FBF3F30133C3F3E5
:101710000B0351E004234FE07B689B68002B11D141
:10172000FB68581E7B6859680B465B000B44B0FB96
:10173000F3F30133C3F30B03002B0CBF012300238E
:10174000DBB212E0FB68581E7B6859680B469B00B1
:101750000B4499000B44B0FBF3F30133C3F30B03C9
:10176000002B0CBF01230023DBB2002B01D001238F
:1017700022E07B689B68002B0ED1FB68581E7B68BB
:1017800059680B465B000B44B0FBF3F30133C3F322
:101790000B0343F400430FE0FB68581E7B68596855
:1017A0000B469B000B4499000B44B0FBF3F3013351
:1017B000C3F30B0343F44043796809681343CB61D7
:1017C0007B681B681B6823F0C0017B68DA697B6853
:1017D0001B6A1A437B681B680A431A607B681B6894
:1017E0009B6823F4034323F0FF037A6811697A6846
:1017F000D26811437A6812680B4393607B681B6858
:10180000DB6823F0FF017B685A697B689B691A4398
:101810007B681B680A43DA607B681B681A687B6810
:101820001B6842F001021A607B6800221A647B6820
:10183000202283F83D207B6800221A637B68002207
:1018400083F83E20002318461037BD4680BD00BFF8
:10185000A08601007F841E00FF083D0083DE1B433D
:10186000D34D621080B483B000AF78607B681B6892
:101870005B6903F08003802B03D17B681B68002227
:101880001A6100BF0C37BD465DF8047B704700004D
:1018900080B588B002AFF8607A601A460B467B814B
:1018A00013463B81FFF77AFB7861FB6893F83D3084
:1018B000DBB2202B40F0E0807B69009319230122EA
:1018C0007049F86801F0F4FC0346002B01D00223B4
:1018D000D3E0FB6893F83C30012B01D10223CCE02C
:1018E000FB68012283F83C20FB681B681B6803F03F
:1018F0000103012B07D0FB681B681A68FB681B6893
:1019000042F001021A60FB681B681A68FB681B68DA
:1019100022F400621A60FB68212283F83D20FB68F4
:10192000102283F83E20FB6800221A64FB687A6864
:101930005A62FB683A895A85FB685B8D9AB2FB68EC
:101940001A85FB68504ADA6279897B693A6AF868D5
:1019500001F084FB0346002B01D001238DE000231E
:101960003B61FB681B685B693B61FB681B689B69AB
:101970003B613B6966E07A69396AF86801F0B2FD5B
:101980000346002B0DD0FB681B6C042B07D1FB68B2
:101990001B681A68FB681B6842F400721A60012316
:1019A0006BE0FB685B6A1A78FB681B681A61FB686E
:1019B0005B6A5A1CFB685A62FB685B8D9BB2013BF9
:1019C0009AB2FB685A85FB681B8D013B9AB2FB6893
:1019D0001A85FB681B685B6903F00403042B1BD1A9
:1019E000FB681B8D002B17D0FB685B6A1A78FB68BD
:1019F0001B681A61FB685B6A5A1CFB685A62FB68C9
:101A00005B8D9BB2013B9AB2FB685A85FB681B8DCC
:101A1000013B9AB2FB681A857A69396AF86801F065
:101A2000A9FD0346002B0DD0FB681B6C042B07D1CE
:101A3000FB681B681A68FB681B6842F400721A6036
:101A400001231AE0FB681B8D002B94D1FB681B68F7
:101A50001A68FB681B6842F400721A60FB68202257
:101A600083F83D20FB68002283F83E20FB680022BB
:101A700083F83C20002300E0022318461837BD46B7
:101A800080BD00BF020010000000FFFF80B588B0DD
:101A900000AF78600023BB617B681B685B687B617B
:101AA0007B68DB6A3B617B6893F83E30FB737B6845
:101AB00093F83D30BB73FB7B102B03D0FB7B402B9B
:101AC00040F0C1807B681B689B69BB617B681B68B9
:101AD0005B69FB61FB6903F00103002B0DD13B69DE
:101AE000B3F52A0F03D03B69B3F12A4F01D101238B
:101AF00000E00023012B00F03281FB6903F00103B9
:101B0000002B0CD07B695B0A03F00103002B06D08D
:101B1000786801F0D8FD786800F0F4FC92E0FB6989
:101B2000DB0803F00103002B09D07B695B0A03F09B
:101B30000103002B03D0786800F06AFD82E0FB69A6
:101B40005B0803F00103002B09D07B695B0A03F0FB
:101B50000103002B03D0786800F084FD72E0BB69BC
:101B60009B0803F00103002B3BD07B681B685B687C
:101B700003F40063B3F5006F00F0F380FB69DB0949
:101B800003F00103002B0FD07B699B0A03F00103D4
:101B9000002B09D0FB699B0803F00103002B03D144
:101BA000786800F04CF94DE0FB699B0803F00103F5
:101BB000002B00F0D6807B695B0A03F00103002B49
:101BC00000F0CF80BB7B212B03D1786800F0D3F9E4
:101BD000C7E0FB7B402B40F0C480786800F041FAFE
:101BE000BFE07B681B685B6803F40063B3F5006FBC
:101BF00000F0B780FB699B0903F00103002B0FD0B5
:101C00007B699B0A03F00103002B09D0FB699B0849
:101C100003F00103002B03D1786800F0BAFA11E059
:101C2000FB699B0803F00103002B00F09A807B699D
:101C30005B0A03F00103002B00F09380786800F04A
:101C400070FB8EE08DE07B681B6C002B04D07B6802
:101C50001B685B69FB6107E07B681B689B69BB6174
:101C60007B681B685B69FB61FB695B0803F0010330
:101C7000002B12D07B695B0A03F00103002B0CD010
:101C80007B681B6C002B03D07B681B689B69BB6166
:101C9000B969786800F035FF66E0FB691B0903F05D
:101CA0000103002B09D07B695B0A03F00103002BC1
:101CB00003D0786800F070FF56E0BB7B212B02D088
:101CC000BB7B292B25D1FB69DB0903F00103002B2A
:101CD0000FD07B699B0A03F00103002B09D0FB693D
:101CE0009B0803F00103002B03D1786800F04BFE42
:101CF00039E0FB699B0803F00103002B33D07B69BB
:101D00005B0A03F00103002B2DD0786800F078FE09
:101D100029E0FB699B0903F00103002B0FD07B69CD
:101D20009B0A03F00103002B09D0FB699B0803F019
:101D30000103002B03D1786800F083FE14E0FB69F7
:101D40009B0803F00103002B0ED07B695B0A03F0B4
:101D50000103002B08D0786800F0B1FE04E000BF5A
:101D600002E000BF00E000BF2037BD4680BD80B468
:101D700083B000AF786000BF0C37BD465DF8047BD0
:101D8000704780B483B000AF786000BF0C37BD46A9
:101D90005DF8047B704780B483B000AF786000BF0B
:101DA0000C37BD465DF8047B704780B483B000AF4C
:101DB000786000BF0C37BD465DF8047B704780B487
:101DC00083B000AF78600B46FB7013463B8000BFCA
:101DD0000C37BD465DF8047B704780B483B000AF1C
:101DE000786000BF0C37BD465DF8047B704780B457
:101DF00083B000AF786000BF0C37BD465DF8047B50
:101E0000704780B483B000AF786000BF0C37BD4628
:101E10005DF8047B704780B483B000AF786000BF8A
:101E20000C37BD465DF8047B704780B483B000AFCB
:101E3000786000BF0C37BD465DF8047B704780B505
:101E400084B000AF78607B6893F83D30FB737B68AB
:101E500093F83E30BB737B68DB6ABB607B681B8D8D
:101E6000002B50D1FB7B212B4DD1BB68082B1DD003
:101E7000BB68202B1AD0BB6813F5803F16D07B6857
:101E80001B685A687B681B6822F4E0625A607B68B2
:101E900011221A637B68002283F83E207B6820228F
:101EA00083F83D207868FFF762FF60E07B681B687D
:101EB0005A687B681B6822F4E0625A607B681B6882
:101EC0001A687B681B6842F400721A607B68002203
:101ED0001A637B68202283F83D207B6893F83E30AC
:101EE000DBB2402B07D17B68002283F83E20786864
:101EF000FFF77DFF3BE07B68002283F83E20786897
:101F0000FFF735FF33E0FB7B212B05D0BB7B402B5C
:101F10002DD1FB7B222B2AD17B685B8D9BB2002BC2
:101F200008D17B681B685A687B681B6822F4806252
:101F30005A601CE07B6893F83E30DBB2402B03D143
:101F4000786800F08EF812E07B685B6A1A787B682C
:101F50001B681A617B685B6A5A1C7B685A627B68E3
:101F60005B8D9BB2013B9AB27B685A85FFE700BF4D
:101F70001037BD4680BD80B584B000AF78607B6807
:101F8000DB6AFB607B6893F83D30DBB2212B64D1C8
:101F90007B685B8D9BB2002B12D07B685B6A1A78E2
:101FA0007B681B681A617B685B6A5A1C7B685A6293
:101FB0007B685B8D9BB2013B9AB27B685A854CE093
:101FC000FB68082B1DD0FB68202B1AD0FB6813F58B
:101FD000803F16D07B681B685A687B681B6822F4B8
:101FE000E0625A607B6811221A637B68002283F8E2
:101FF0003E207B68202283F83D207868FFF7B7FEFB
:102000002BE07B681B685A687B681B6822F4E062DF
:102010005A607B681B681A687B681B6842F4007210
:102020001A607B6800221A637B68202283F83D20B7
:102030007B6893F83E30DBB2402B07D17B680022EF
:1020400083F83E207868FFF7D2FE06E07B68002226
:1020500083F83E207868FFF78AFE00BF1037BD4640
:1020600080BD80B584B000AF78607B6893F83D3068
:10207000FB737B681B6D002B1DD17B68DB6C012B18
:102080000BD17B689B6CDAB27B681B681A617B683A
:102090001B6D9A1C7B681A6577E07B689B6C9BB212
:1020A0001B12DAB27B681B681A617B681B6D5A1CB5
:1020B0007B681A6569E07B681B6D012B0BD17B681F
:1020C0009B6CDAB27B681B681A617B681B6D5A1CBB
:1020D0007B681A6559E07B681B6D022B52D1FB7B34
:1020E000222B0DD17B681B681A687B681B6842F441
:1020F00080721A607B681B6D5A1C7B681A6544E00D
:102100007B685B8D9BB2002B15D0FB7B212B12D102
:102110007B685B6A1A787B681B681A617B685B6AFC
:102120005A1C7B685A627B685B8D9BB2013B9AB2FA
:102130007B685A8529E07B685B8D9BB2002B24D19C
:10214000FB7B212B21D17B681B685A687B681B684D
:1021500022F4E0625A607B681B681A687B681B681F
:1021600042F400721A607B6800221A637B682022A6
:1021700083F83D207B68002283F83E207868FFF7D3
:1021800036FE02E07868FFF76DFB00BF1037BD46F2
:1021900080BD80B584B000AF78607B6893F83D3037
:1021A000DBB2222B40F0B9807B68DB6AFB607B6886
:1021B0005B8D9BB2BB60BB68032B21D97B681B681E
:1021C0001A697B685B6AD2B21A707B685B6A5A1CB8
:1021D0007B685A627B685B8D9BB2013B9AB27B68DD
:1021E0005A857B685B8D9BB2032B40F096807B68A1
:1021F0001B685A687B681B6822F480625A608CE016
:102200007B68DB6A022B7FD0BB68012B02D0BB68E6
:10221000002B79D1786801F0F5F90346002B4CD1F9
:102220007B681B681A687B681B6822F480621A60EE
:102230007B681B685A687B681B6822F4E0625A60FE
:102240007B681B681A697B685B6AD2B21A707B680C
:102250005B6A5A1C7B685A627B685B8D9BB2013B50
:102260009AB27B685A857B68202283F83D207B6880
:1022700093F83E30DBB2402B0AD17B68002283F812
:102280003E207B6800221A637868FFF7BAFD44E0BD
:102290007B68002283F83E20FB68082B02D0FB6895
:1022A000202B03D17B6800221A6302E07B68122294
:1022B0001A637868FFF765FD2FE07B681B685A6832
:1022C0007B681B6822F4E0625A607B681B681A69AD
:1022D0007B685B6AD2B21A707B685B6A5A1C7B6847
:1022E0005A627B685B8D9BB2013B9AB27B685A85D0
:1022F0007B68202283F83D207B68002283F83E2003
:102300007868FFF788FD08E07B681B685A687B687F
:102310001B6822F480625A60FFE700BF1037BD4699
:1023200080BD80B584B000AF78607B68DB6AFB60FD
:102330007B685B8D9BB2042B1BD17B681B685A6842
:102340007B681B6822F480625A607B681B681A698C
:102350007B685B6AD2B21A707B685B6A5A1C7B68C6
:102360005A627B685B8D9BB2013B9AB27B685A854F
:10237000C4E07B685B8D9BB2032B29D17B681B6813
:102380005A687B681B6822F480625A60FB68042BE1
:102390000AD0FB68022B07D07B681B681A687B6831
:1023A0001B6822F480621A607B681B681A697B686C
:1023B0005B6AD2B21A707B685B6A5A1C7B685A628D
:1023C0007B685B8D9BB2013B9AB27B685A8595E036
:1023D0007B685B8D9BB2022B7DD1FB68012B02D009
:1023E000FB68102B08D17B681B681A687B681B6828
:1023F00022F480621A6016E0FB68042B02D0FB68AE
:10240000022B08D17B681B681A687B681B6842F442
:1024100080621A6007E07B681B681A687B681B682B
:1024200042F400721A607B681B681A697B685B6AF9
:10243000D2B21A707B685B6A5A1C7B685A627B68EE
:102440005B8D9BB2013B9AB27B685A857B681B68A7
:102450001A697B685B6AD2B21A707B685B6A5A1C25
:102460007B685A627B685B8D9BB2013B9AB27B684A
:102470005A857B681B685A687B681B6822F4407227
:102480005A607B68202283F83D207B6893F83E30B9
:10249000DBB2402B0AD17B68002283F83E207B68A8
:1024A00000221A637868FFF7ACFC27E07B68002203
:1024B00083F83E20FB68082B02D0FB68202B03D159
:1024C0007B6800221A6302E07B6812221A63786834
:1024D000FFF757FC12E07B681B681A697B685B6A30
:1024E000D2B21A707B685B6A5A1C7B685A627B683E
:1024F0005B8D9BB2013B9AB27B685A8500BF103757
:10250000BD4680BD80B483B000AF78607B6893F82F
:102510003E30DBB2402B17D17B681B6D002B09D1FD
:102520007B685B6CDBB21A467B681B6802F0FE02BC
:102530001A6167E07B685B6CDBB243F00103DAB2DF
:102540007B681B681A615DE07B681B69B3F5804F8F
:1025500033D17B6893F83D30DBB2212B09D17B6806
:102560005B6CDBB21A467B681B6802F0FE021A61E4
:1025700008E07B685B6CDBB243F00103DAB27B6896
:102580001B681A617B685B6B002B04D07B685B6BFC
:10259000DB6B002B08D17B689B6B002B32D07B68F8
:1025A0009B6BDB6B002B2DD07B681B685A687B68AC
:1025B0001B6842F400625A6024E07B681B6D002BAC
:1025C0000ED17B685B6C9BB2DB11DBB203F00603C0
:1025D000DBB263F00F03DAB27B681B681A6111E0AB
:1025E0007B681B6D012B0DD17B685B6C9BB2DB1193
:1025F000DBB203F00603DBB263F00E03DAB27B68F2
:102600001B681A6100BF0C37BD465DF8047B70473C
:1026100080B483B000AF78607B685B6CDAB27B68B3
:102620001B681A617B685B6B002B04D07B685B6B5B
:10263000DB6B002B08D17B689B6B002B0CD07B687D
:102640009B6BDB6B002B07D07B681B685A687B6831
:102650001B6842F400625A6000BF0C37BD465DF84B
:10266000047B704780B491B000AF78607B6893F8CA
:102670003E3087F83F307B68DB6ABB637B681B6B4F
:102680007B637B6893F83D30DBB2222B40F069819D
:102690007B681B6D002B0FD197F83F30402B0BD17F
:1026A00000233B637B681B685B693B637B681B683B
:1026B0009B693B633B6B60E17B681B6D002B1DD10D
:1026C0007B681B69B3F5404F18D10023FB627B6820
:1026D0001B685B69FB627B681B689B69FB62FB6A2A
:1026E0007B681B681A687B681B6842F480721A60FA
:1026F0007B681B6D5A1C7B681A653EE17B685B8DAD
:102700009BB2002B13D10023BB627B681B685B6903
:10271000BB627B681B689B69BB62BB6A7B681B688A
:102720001A687B681B6842F400721A6015E17B68C6
:102730005B8D9BB2012B40F08A80BB6B13F5803F11
:1027400037D17B681B681A687B681B6822F480623B
:102750001A607B681B685B6803F40063B3F5006F65
:1027600013D17B681B681A687B681B6822F480623F
:102770001A6000237B627B681B685B697B627B68F5
:102780001B689B697B627B6AE7E000233B627B6896
:102790001B685B693B627B681B689B693B623B6AA9
:1027A0007B681B681A687B681B6842F400721A60B9
:1027B000D3E0BB6B082B2ED0BB6B202B2BD07B6BBD
:1027C000122B02D1BB6B012B25D1BB6B042B0ED07E
:1027D000BB6B022B0BD0BB6B102B08D07B681B682C
:1027E0001A687B681B6822F480621A6007E07B68C5
:1027F0001B681A687B681B6842F480621A600023B9
:10280000FB617B681B685B69FB617B681B689B697C
:10281000FB61FB69A1E07B681B681A687B681B6829
:1028200022F480621A600023BB617B681B685B69CD
:10283000BB617B681B689B69BB61BB697B681B686C
:102840001A687B681B6842F400721A6085E07B6836
:102850005B8D9BB2022B4DD1BB6B042B16D0BB6B97
:10286000022B13D0BB6B102B10D07B681B681A682F
:102870007B681B6822F480621A607B681B681A6898
:102880007B681B6842F400621A6007E07B681B6883
:102890001A687B681B6842F480621A607B681B6858
:1028A0005B6803F40063B3F5006F17D1BB6B13F5DE
:1028B000803F0BD0BB6B012B08D0BB6B082B05D026
:1028C000BB6B102B02D0BB6B202B07D17B681B6826
:1028D0005A687B681B6842F480525A6000237B610F
:1028E0007B681B685B697B617B681B689B697B619C
:1028F0007B6932E07B681B681A687B681B6842F45E
:1029000080621A607B681B685B6803F40063B3F540
:10291000006F17D1BB6B13F5803F0BD0BB6B012B46
:1029200008D0BB6B082B05D0BB6B102B02D0BB6B48
:10293000202B07D17B681B685A687B681B6842F4B0
:1029400080525A6000233B617B681B685B693B6176
:102950007B681B689B693B613B697B6800221A6549
:102960000BE00023FB607B681B685B69FB607B6896
:102970001B689B69FB60FB68FFE700BF4437BD46EF
:102980005DF8047B704780B584B000AF78607B68E9
:1029900093F83D30FB737B685B8D9BB2002B2BD093
:1029A0007B685B6A1A787B681B681A617B685B6A64
:1029B0005A1C7B685A627B685B8D9BB2013B9AB262
:1029C0007B685A857B685B8D9BB2002B14D1FB7BA7
:1029D000292B11D17B681B685A687B681B6822F41D
:1029E00080625A607B6821221A637B68282283F800
:1029F0003D207868FFF7CFF900BF1037BD4680BD96
:102A000080B483B000AF78607B685B8D9BB2002B95
:102A100011D07B685B6A1A787B681B681A617B68D7
:102A20005B6A5A1C7B685A627B685B8D9BB2013B78
:102A30009AB27B685A8500BF0C37BD465DF8047BAF
:102A4000704780B584B000AF78607B6893F83D3004
:102A5000FB737B685B8D9BB2002B2CD07B681B6863
:102A60001A697B685B6AD2B21A707B685B6A5A1C0F
:102A70007B685A627B685B8D9BB2013B9AB27B6834
:102A80005A857B685B8D9BB2002B14D1FB7B2A2B74
:102A900011D17B681B685A687B681B6822F48062CE
:102AA0005A607B6822221A637B68282283F83D20C3
:102AB0007868FFF77AF900BF1037BD4680BD80B453
:102AC00083B000AF78607B685B8D9BB2002B12D027
:102AD0007B681B681A697B685B6AD2B21A707B6874
:102AE0005B6A5A1C7B685A627B685B8D9BB2013BB8
:102AF0009AB27B685A8500BF0C37BD465DF8047BEF
:102B0000704780B584B000AF786039600023FB73F4
:102B10007B6893F83D30DBB203F02803282B27D1E4
:102B20007B681B685A687B681B6822F480625A6065
:102B30003B689B0803F00103002B01D10123FB73C9
:102B40003B68DB0903F00103002B03D17B68DB68E2
:102B5000BB8102E07B689B69BB817B68002283F8B4
:102B60003C20BA89FB7B19467868FFF728F90EE00C
:102B70000023BB607B681B685B69BB607B681B686C
:102B80009B69BB60BB687B68002283F83C2000BF68
:102B90001037BD4680BD000080B584B000AF7860BE
:102BA0007B6893F83D30FB737B681B685A687B68D1
:102BB0001B6822F4E0625A600023BB607B681B68DC
:102BC0005B69BB607B681B681A687B681B6842F0A6
:102BD00001021A60BB687B681B681A687B681B6807
:102BE00022F480621A607B681B685B6803F40063F0
:102BF000B3F5006F72D1FB7B222B02D0FB7B2A2B1B
:102C000035D17B689B6B1B685B689AB27B685A8581
:102C10007B685B8D9BB2002B05D07B681B6C43F0FF
:102C200004027B681A647B681B685A687B681B68AF
:102C300022F400625A607B689B6B1846FEF711FB1A
:102C40000346012B49D07B689B6B694A1A657B68F8
:102C50009B6B1846FEF7E3FA0346002B3DD07B68DA
:102C60009B6B1B6D7A68926B1046984735E07B68CA
:102C70005B6B1B685B689AB27B685A857B685B8D6F
:102C80009BB2002B05D07B681B6C43F004027B6871
:102C90001A647B681B685A687B681B6822F40062B0
:102CA0005A607B685B6B1846FEF7DBFA0346012B24
:102CB00014D07B685B6B4E4A1A657B685B6B184669
:102CC000FEF7ADFA0346002B08D07B685B6B1B6DEB
:102CD0007A68526B1046984700E000BF7B685B8DB6
:102CE0009BB2002B3ED07B681B685B6903F004033A
:102CF000042B12D17B681B681A697B685B6AD2B2AD
:102D00001A707B685B6A5A1C7B685A627B685B8DB1
:102D10009BB2013B9AB27B685A857B681B685B69F2
:102D200003F04003402B12D17B681B681A697B6853
:102D30005B6AD2B21A707B685B6A5A1C7B685A6203
:102D40007B685B8D9BB2013B9AB27B685A857B683E
:102D50005B8D9BB2002B05D07B681B6C43F004029B
:102D60007B681A647B681B6C002B03D0786800F0CA
:102D700043F839E0FB7B2A2B09D17B6800221A63D8
:102D80007B68282283F83D207868FFF70EF87B687F
:102D900093F83D30DBB2282B11D17B68154ADA62FB
:102DA0007B6800221A637B68202283F83D207B68C1
:102DB000002283F83E207868FFF70FF814E07B6864
:102DC0001B6B222B02D0FB7B222B0DD17B680022B8
:102DD0001A637B68202283F83D207B68002283F8F9
:102DE0003E207868FEF7E1FF00BF1037BD4680BD8A
:102DF000613100080000FFFF80B584B000AF78604B
:102E00007B6893F83D30FB737B6893F83E30BB736F
:102E1000BB7B102B02D0BB7B402B0AD1FB7B222B30
:102E200007D17B681B681A687B681B6822F4006204
:102E30001A60FB7B03F02803282B07D17B68002254
:102E40001A637B68282283F83D2015E07B681B68A5
:102E50005B6803F40063B3F5006F0AD0FB7B602B63
:102E600007D07B68202283F83D207B68002283F80E
:102E70003E207B6800221A637B681B685B6803F452
:102E80000063B3F5006F62D17B681B685A687B688A
:102E90001B6822F400625A607B685B6B93F83530E4
:102EA000DBB2012B20D07B685B6B6A4A1A657B68BA
:102EB0005B6B1846FEF7B3F90346002B00F08980E0
:102EC0007B681B681A687B681B6822F001021A6025
:102ED0007B68202283F83D207B685B6B1B6D7A68E2
:102EE000526B1046984774E07B689B6B594A1A6591
:102EF0007B689B6B1846FEF792F90346002B68D05F
:102F00007B681B685B6903F04003402B0BD17B6837
:102F10001B681A697B685B6AD2B21A707B685B6A4D
:102F20005A1C7B685A627B681B681A687B681B683E
:102F300022F001021A607B68202283F83D207B6822
:102F40009B6B1B6D7A68926B1046984741E07B68DB
:102F500093F83D30DBB2602B25D17B68202283F8CB
:102F60003D207B6800221A647B681B685B6903F064
:102F70004003402B0BD17B681B681A697B685B6A36
:102F8000D2B21A707B685B6A5A1C7B685A627B6893
:102F90001B681A687B681B6822F001021A60786857
:102FA000FEF743FF15E07B681B685B6903F0400395
:102FB000402B0BD17B681B681A697B685B6AD2B2B5
:102FC0001A707B685B6A5A1C7B685A627868FEF7E5
:102FD00022FF7B681B6CBB60BB6803F00103002B06
:102FE0000ED1BB6803F00203002B09D1BB6803F0CC
:102FF0000403002B04D1BB6803F00803002B07D0A7
:103000007B681B685A687B681B6822F4E0625A6020
:103010007B6893F83D30FB737B681B6C03F0040303
:10302000042B13D1FB7B282B10D17B680A4ADA6270
:103030007B6800221A637B68202283F83D207B682E
:10304000002283F83E207868FEF7C7FE00BF1037E5
:10305000BD4680BD613100080000FFFF80B588B02B
:1030600002AFF8607A603B600B467B81FB68DB6AED
:103070007B617B69082B06D07B69012B03D07B69C0
:1030800013F5803F08D1FB681B681A68FB681B6852
:1030900042F480721A600BE0FB681B6B122B07D1A5
:1030A000FB681B681A68FB681B6842F480721A6030
:1030B0003B6800937B6800224FF00111F86800F034
:1030C000F7F80346002B0DD0FB681B681B6803F460
:1030D0008073B3F5807F03D1FB684FF400721A64EC
:1030E000032335E0FB681B69B3F5804F08D17B896A
:1030F000DBB21A46FB681B6802F0FE021A611BE095
:103100007B89DB11DBB203F00603DBB263F00F0354
:10311000DAB2FB681B681A613B687A680E49F86886
:1031200000F040F90346002B01D0012310E07B8919
:10313000DAB2FB681B681A613B687A680749F8686D
:1031400000F030F90346002B01D0012300E00023FA
:1031500018461837BD4680BD080001000200010076
:1031600080B586B000AF78600023FB607B689B6B06
:103170007B617B6993F83D30FB744B4B1B68DB082C
:103180004A4AA2FB03231A0A13469B001344DA009F
:10319000D31AFB60FB68002B06D17B691B6C43F0E4
:1031A00020027B691A640AE0FB68013BFB607B69D3
:1031B0001B681B6803F40073B3F5007FEAD07B69DA
:1031C0005B6B002B03D07B695B6B0022DA637B694E
:1031D0009B6B002B03D07B699B6B0022DA637B69BE
:1031E0001B681A687B691B6822F480621A607B691D
:1031F00000225A857B695B6B002B03D07B695B6B7C
:1032000000221A657B699B6B002B03D07B699B6B4B
:1032100000221A657B691B681A687B691B6822F0AB
:1032200001021A607B6993F83D30DBB2602B0ED14E
:103230007B69202283F83D207B69002283F83E20B1
:103240007B6900221A647869FEF7EFFD27E0FB7CBA
:1032500003F02803282B17D17B691B681A687B6948
:103260001B6842F001021A607B691B681A687B695F
:103270001B6842F480621A607B6900221A637B69D2
:10328000282283F83D2007E07B69202283F83D2037
:103290007B69002283F83E207869FEF7BCFD00BF01
:1032A0001837BD4680BD00BF0000002089B5F81466
:1032B00080B584B000AFF860B9603B601346FB7125
:1032C00048E03B68B3F1FF3F44D0FDF767FE02469C
:1032D000BB69D31A3A689A4202D33B68002B39D1B2
:1032E000BB681B0CDBB2012B0DD1FB681B685B6953
:1032F000DA43BB6813409BB2002B0CBF01230023B1
:10330000DBB21A460CE0FB681B689B69DA43BB68BA
:1033100013409BB2002B0CBF01230023DBB21A46E3
:10332000FB799A4216D1FB6800221A63FB682022BF
:1033300083F83D20FB68002283F83E20FB681B6C6D
:1033400043F02002FB681A64FB68002283F83C20EB
:10335000012323E0BB681B0CDBB2012B0DD1FB6802
:103360001B685B69DA43BB6813409BB2002B0CBF40
:1033700001230023DBB21A460CE0FB681B689B6943
:10338000DA43BB6813409BB2002B0CBF0123002320
:10339000DBB21A46FB799A4293D0002318461037C5
:1033A000BD4680BD80B584B000AFF860B9607A607A
:1033B0003B6071E0FB681B685B6903F48063B3F5F5
:1033C000806F23D1FB681B681A68FB681B6842F496
:1033D00000721A60FB681B686FF480625A61FB68B8
:1033E00000221A63FB68202283F83D20FB6800223C
:1033F00083F83E20FB681B6C43F00402FB681A64F0
:10340000FB68002283F83C20012367E07B68B3F16E
:10341000FF3F41D0FDF7C2FD02463B68D31A7A68F0
:103420009A4202D37B68002B36D1BB681B0CDBB2FF
:10343000012B0CD1FB681B685B69DA43BB68134046
:103440009BB2002B14BF01230023DBB20BE0FB680F
:103450001B689B69DA43BB6813409BB2002B14BF07
:1034600001230023DBB2002B16D0FB6800221A6375
:10347000FB68202283F83D20FB68002283F83E2071
:10348000FB681B6C43F02002FB681A64FB68002297
:1034900083F83C20012321E0BB681B0CDBB2012B2D
:1034A0000CD1FB681B685B69DA43BB6813409BB2B5
:1034B000002B14BF01230023DBB20BE0FB681B6869
:1034C0009B69DA43BB6813409BB2002B14BF0123F6
:1034D0000023DBB2002B7FF46DAF002318461037BA
:1034E000BD4680BD80B584B000AFF860B9607A6039
:1034F00034E0F86800F0B8F80346002B01D001234F
:1035000034E0BB68B3F1FF3F28D0FDF747FD02462A
:103510007B68D31ABA689A4202D3BB68002B1DD1CC
:10352000FB681B685B6903F08003802B16D0FB6887
:1035300000221A63FB68202283F83D20FB680022EA
:1035400083F83E20FB681B6C43F02002FB681A6482
:10355000FB68002283F83C20012307E0FB681B681E
:103560005B6903F08003802BC3D10023184610371A
:10357000BD4680BD80B584B000AFF860B9607A60A8
:1035800034E0F86800F070F80346002B01D0012306
:1035900034E0BB68B3F1FF3F28D0FDF7FFFC0246E3
:1035A0007B68D31ABA689A4202D3BB68002B1DD13C
:1035B000FB681B685B6903F00403042B16D0FB68EF
:1035C00000221A63FB68202283F83D20FB6800225A
:1035D00083F83E20FB681B6C43F02002FB681A64F2
:1035E000FB68002283F83C20012307E0FB681B688E
:1035F0005B6903F00403042BC3D100231846103782
:10360000BD4680BD80B485B000AF78600023FB600C
:10361000134B1B68DB08134AA2FB03231A0A134649
:103620009B001344FB60FB68013BFB60FB68002BC5
:1036300007D17B681B6C43F020027B681A6401236E
:1036400008E07B681B681B6803F40073B3F5007F18
:10365000E9D0002318461437BD465DF8047B704757
:103660000000002089B5F81480B483B000AF786002
:103670007B681B685B6903F48063B3F5806F1BD1C3
:103680007B681B686FF480625A617B6800221A6352
:103690007B68202283F83D207B68002283F83E204F
:1036A0007B681B6C43F004027B681A647B68002211
:1036B00083F83C20012300E0002318460C37BD4668
:1036C0005DF8047B704780B483B000AF78607B689E
:1036D000DB6AB3F52A0F03D17B680122DA6207E0C7
:1036E0007B68DB6AB3F12A4F02D17B680822DA6279
:1036F00000BF0C37BD465DF8047B704780B584B0D1
:1037000000AF786039607B68002B01D10123CCE0E9
:10371000684B1B6803F00F033A689A420CD9654B5B
:103720003A68D2B21A70634B1B6803F00F033A6811
:103730009A4201D00123B8E07B681B6803F00203C2
:10374000002B20D07B681B6803F00403002B05D0FE
:10375000594B9B68584A43F4E05393607B681B685D
:1037600003F00803002B05D0534B9B68524A43F4E7
:1037700060439360504B9B6823F0F0027B689B682A
:103780004D4913438B607B681B6803F00103002BDA
:1037900044D07B685B68012B07D1474B1B6803F45F
:1037A0000033002B19D101237FE07B685B68022B7B
:1037B00003D07B685B68032B07D13F4B1B6803F08A
:1037C0000073002B09D101236FE03B4B1B6803F012
:1037D0000203002B01D1012367E0374B9B6823F0E4
:1037E00003027B685B68344913438B60FDF7D6FBAB
:1037F000F8600AE0FDF7D2FB0246FB68D31A41F2FB
:103800008832934201D903234FE02B4B9B6803F08E
:103810000C027B685B689B009A42EBD1254B1B68CE
:1038200003F00F033A689A420CD2224B3A68D2B2A4
:103830001A70204B1B6803F00F033A689A4201D0BC
:10384000012332E07B681B6803F00403002B08D0DF
:10385000194B9B6823F4E0527B68DB6816491343DD
:103860008B607B681B6803F00803002B09D0124BA8
:103870009B6823F460427B681B69DB000E4913439D
:103880008B6000F055F802460B4B9B681B0903F058
:103890000F030A49CB5C22FA03F3094A1360094B70
:1038A0001B681846FDF736FB002318461037BD4647
:1038B00080BD00BF003C024000380240D8500008E4
:1038C000000000200400002080B400AF034B1B6800
:1038D0001846BD465DF8047B704700BF000000201D
:1038E00080B500AFFFF7F0FF0246054B9B689B0ACF
:1038F00003F007030349CB5C22FA03F3184680BDAB
:1039000000380240E850000880B500AFFFF7DCFF48
:103910000246054B9B685B0B03F007030349CB5C36
:1039200022FA03F3184680BD00380240E850000830
:103930002DE9B04FAEB000AF0023C7F8AC30002384
:10394000C7F8B4300023C7F8A8300023C7F8A43064
:103950000023C7F8B030CB4B9B6803F00C030C2B53
:1039600000F2068201A252F823F000BFA13900083C
:10397000713D0008713D0008713D0008A93900083B
:10398000713D0008713D0008713D0008B139000823
:10399000713D0008713D0008713D0008A13B000821
:1039A000B94BC7F8B030E7E1B84BC7F8B030E3E146
:1039B000B44B5B6803F03F03C7F8AC30B14B5B68B6
:1039C00003F48003002B71D0AE4B5B689B0900228F
:1039D000C7F89830C7F89C20D7F89830C3F308038D
:1039E000C7F890300023C7F89430D7E92445224621
:1039F0002B464FF000004FF00001590141EAD2611F
:103A0000500102460B462146511A3964294663EBA0
:103A100001037B644FF000024FF00003D7E91089E7
:103A200049468B01414643EA916341468A0141463A
:103A3000511AB963494663EB0103FB634FF000027F
:103A40004FF00003D7E90E894946CB00414643EACF
:103A500051734146CA0010461946034622469B1838
:103A60003B632B460A4642EB03037B634FF00002A5
:103A70004FF00003D7E90C4529464B02214643EAA3
:103A8000D15321464A0210461946D7F8AC300022DD
:103A9000C7F88830C7F88C20D7E92223FCF7EEFC62
:103AA00002460B461346C7F8B43067E0754B5B68B7
:103AB0009B090022C7F88030C7F88420D7F88030EF
:103AC000C3F30803BB670023FB67D7E91E45224603
:103AD0002B464FF000004FF00001590141EAD2613E
:103AE000500102460B462146511AB962294663EB42
:103AF0000103FB624FF000024FF00003D7E90A898F
:103B000049468B01414643EA916341468A01414659
:103B1000B2EB010A494663EB010B4FF000024FF094
:103B200000034FEACB0343EA5A734FEACA029246B4
:103B30009B4623461AEB03033B622B464BEB0303E6
:103B40007B624FF000024FF00003D7E90845294699
:103B50008B02214643EA915321468A0210461946B8
:103B6000D7F8AC3000223B677A67D7E91C23FCF713
:103B700085FC02460B461346C7F8B430414B5B68E0
:103B80001B0C03F0030301335B00C7F8A830D7F820
:103B9000B420D7F8A830B2FBF3F3C7F8B030EBE0AD
:103BA000384B5B6803F03F03C7F8AC30354B5B68BC
:103BB00003F48003002B6BD0324B5B689B0900221F
:103BC000BB66FA66BB6EC3F308033B6600237B66E5
:103BD000D7E9184522462B464FF000004FF0000170
:103BE000590141EAD261500102460B462146511A61
:103BF000B961294663EB0103FB614FF000024FF00E
:103C00000003D7E906AB59468B01514643EA91635D
:103C100051468A015146B2EB0108594663EB01094E
:103C20004FF000024FF000034FEAC90343EA587314
:103C30004FEAC80290469946234618EB03033B61BE
:103C40002B4649EB03037B614FF000024FF000036A
:103C5000D7E9044529464B02214643EAD153214680
:103C60004A0210461946D7F8AC300022BB65FA6507
:103C7000D7E91623FCF702FC02460B461346C7F8A9
:103C8000B43065E0003802400024F40000127A00ED
:103C90003D4B5B689B09002218461146C0F30803A0
:103CA0003B6500237B65D7E9148942464B464FF0BC
:103CB00000004FF00001590141EAD2615001024673
:103CC0000B464146511AB960494663EB0103FB605C
:103CD0004FF000024FF00003D7E902AB59468B01C9
:103CE000514643EA916351468A015146541A594656
:103CF00063EB01054FF000024FF00003EB0043EAD5
:103D00005473E20014461D464346E3183B604B469D
:103D100045EB03037B604FF000024FF00003D7E94F
:103D2000004529468B02214643EA915321468A02E7
:103D300010461946D7F8AC300022BB64FA64D7E9C4
:103D40001223FCF79BFB02460B461346C7F8B43020
:103D50000D4B5B681B0F03F00703C7F8A430D7F8BF
:103D6000B420D7F8A430B2FBF3F3C7F8B03003E0C7
:103D7000064BC7F8B03000BFD7F8B0301846B83798
:103D8000BD46BDE8B08F00BF003802400024F400FB
:103D900080B586B000AF78607B68002B01D101232D
:103DA0008DE27B681B6803F00103002B00F0838029
:103DB000944B9B6803F00C03042B19D0914B9B6828
:103DC00003F00C03082B06D18E4B5B6803F48003D1
:103DD000B3F5800F0CD08B4B9B6803F00C030C2BBE
:103DE00012D1884B5B6803F48003B3F5800F0BD1CD
:103DF000844B1B6803F40033002B5BD07B685B684B
:103E0000002B57D101235AE27B685B68B3F5803FF2
:103E100006D17C4B1B687B4A43F4803313601DE062
:103E20007B685B68B3F5A02F0CD1764B1B68754A95
:103E300043F480231360734B1B68724A43F480334E
:103E400013600BE06F4B1B686E4A23F480331360E2
:103E50006C4B1B686B4A23F4802313607B685B68A0
:103E6000002B13D0FDF79AF8386108E0FDF796F8BB
:103E700002463B69D31A642B01D903231FE2614B2D
:103E80001B6803F40033002BF0D014E0FDF786F834
:103E9000386108E0FDF782F802463B69D31A642BCB
:103EA00001D903230BE2574B1B6803F40033002BAB
:103EB000F0D100E000BF7B681B6803F00203002B19
:103EC0006FD0504B9B6803F00C03002B17D04D4B69
:103ED0009B6803F00C03082B05D14A4B5B6803F485
:103EE0008003002B0BD0474B9B6803F00C030C2B7B
:103EF0001CD1444B5B6803F48003002B16D1414B6B
:103F00001B6803F00203002B05D07B68DB68012BE4
:103F100001D00123D3E13B4B1B6823F0F8027B68FF
:103F20001B69DB00374913430B603AE07B68DB68B1
:103F3000002B20D0344B01221A60FDF72FF8386196
:103F400008E0FDF72BF802463B69D31A022B01D992
:103F50000323B4E12B4B1B6803F00203002BF0D0CA
:103F6000284B1B6823F0F8027B681B69DB0025499E
:103F700013430B6015E0244B00221A60FDF70EF886
:103F8000386108E0FDF70AF802463B69D31A022BB4
:103F900001D9032393E11B4B1B6803F00203002BA1
:103FA000F0D17B681B6803F00803002B36D07B68D8
:103FB0005B69002B16D0154B01221A60FCF7EEFF4F
:103FC000386108E0FCF7EAFF02463B69D31A022B8E
:103FD00001D9032373E10B4B5B6F03F00203002B4A
:103FE000F0D01BE0094B00221A60FCF7D7FF3861C4
:103FF0000EE0FCF7D3FF02463B69D31A022B07D928
:1040000003235CE10038024000004742800E474233
:104010008A4B5B6F03F00203002BEAD17B681B68BD
:1040200003F00403002B00F097800023FB75834B03
:104030001B6C03F08053002B0FD10023BB607F4B20
:104040001B6C7E4A43F0805313647C4B1B6C03F063
:104050008053BB60BB680123FB75794B1B6803F47D
:104060008073002B18D1764B1B68754A43F480731C
:104070001360FCF793FF386108E0FCF78FFF0246FE
:104080003B69D31A022B01D9032318E16C4B1B683F
:1040900003F48073002BF0D07B689B68012B06D162
:1040A000664B1B6F654A43F0010313671CE07B6896
:1040B0009B68052B0CD1614B1B6F604A43F00403D6
:1040C00013675E4B1B6F5D4A43F0010313670BE000
:1040D0005A4B1B6F594A23F001031367574B1B6F51
:1040E000564A23F0040313677B689B68002B15D0A6
:1040F000FCF754FF38610AE0FCF750FF02463B69C9
:10410000D31A41F28832934201D90323D7E04B4BB3
:104110001B6F03F00203002BEED014E0FCF73EFF10
:1041200038610AE0FCF73AFF02463B69D31A41F2D4
:104130008832934201D90323C1E0404B1B6F03F047
:104140000203002BEED1FB7D012B05D13B4B1B6CF9
:104150003A4A23F0805313647B689B69002B00F07C
:10416000AD80364B9B6803F00C03082B60D07B6856
:104170009B69022B45D1334B00221A60FCF70EFFDE
:10418000386108E0FCF70AFF02463B69D31A022BAC
:1041900001D9032393E0294B1B6803F00073002B24
:1041A000F0D17B68DA697B681B6A1A437B685B6ABB
:1041B0009B011A437B689B6A5B08013B1B041A4303
:1041C0007B68DB6A1B061A437B681B6B1B071B495A
:1041D00013434B601B4B01221A60FCF7DFFE386172
:1041E00008E0FCF7DBFE02463B69D31A022B01D93B
:1041F000032364E0114B1B6803F00073002BF0D025
:104200005CE0104B00221A60FCF7C8FE386108E041
:10421000FCF7C4FE02463B69D31A022B01D90323E3
:104220004DE0064B1B6803F00073002BF0D145E016
:104230007B689B69012B07D1012340E000380240D5
:1042400000700040600047421F4B5B68FB607B686A
:104250009B69012B30D0FB6803F480027B68DB692B
:104260009A4229D1FB6803F03F027B681B6A9A429D
:1042700022D1FA6847F6C07313407A68526A9201F5
:10428000934219D1FB6803F440327B689B6A5B0858
:10429000013B1B049A420FD1FB6803F070627B68FC
:1042A000DB6A1B069A4207D1FB6803F0E0427B6899
:1042B0001B6B1B079A4201D0012300E00023184624
:1042C0001837BD4680BD00BF0038024080B582B0BF
:1042D00000AF78607B68002B01D101237BE07B6815
:1042E0005B6A002B08D17B685B68B3F5827F09D0DD
:1042F0007B680022DA6105E07B6800221A617B6836
:1043000000225A617B6800229A627B6893F85130E0
:10431000DBB2002B06D17B68002283F8502078683E
:10432000FCF7A0FC7B68022283F851207B681B68A5
:104330001A687B681B6822F040021A607B685B6821
:1043400003F482727B689B6803F404431A437B681E
:10435000DB6803F400631A437B681B6903F0020304
:104360001A437B685B6903F001031A437B689B690E
:1043700003F400731A437B68DB6903F038031A43C4
:104380007B681B6A03F0800342EA03017B689B6A37
:1043900003F400527B681B680A431A607B689B69C0
:1043A0001B0C03F004017B685B6A03F010027B685E
:1043B0001B680A435A607B681B68DA697B681B6864
:1043C00022F40062DA617B6800225A657B68012270
:1043D00083F85120002318460837BD4680BD80B5BC
:1043E00088B000AFF860B9603B601346FB80FCF713
:1043F000D5FDF861FB887B83FB6893F85130DBB215
:10440000012B01D002232AE1BB68002B02D0FB88DC
:10441000002B01D1012322E1FB6893F85030012BDE
:1044200001D102231BE1FB68012283F85020FB68C5
:10443000032283F85120FB6800225A65FB68BA68A2
:104440001A63FB68FA889A86FB68FA88DA86FB6842
:1044500000229A63FB6800229A87FB680022DA87B1
:10446000FB6800225A64FB6800221A64FB689B68A0
:10447000B3F5004F0FD1FB681B681A68FB681B6817
:1044800022F040021A60FB681B681A68FB681B6810
:1044900042F480421A60FB681B681B6803F040030B
:1044A000402B07D0FB681B681A68FB681B6842F04A
:1044B00040021A60FB68DB68B3F5006F52D1FB68FD
:1044C0005B68002B02D07B8B012B45D1FB681B6BFB
:1044D0001A88FB681B68DA60FB681B6B9A1CFB6818
:1044E0001A63FB68DB8E9BB2013B9AB2FB68DA86EB
:1044F00032E0FB681B689B6803F00203022B12D1B9
:10450000FB681B6B1A88FB681B68DA60FB681B6B17
:104510009A1CFB681A63FB68DB8E9BB2013B9AB264
:10452000FB68DA8618E0FCF739FD0246FB69D31A0E
:104530003A689A4203D83B68B3F1FF3F02D13B6827
:10454000002B09D1FB68012283F85120FB6800226F
:1045500083F85020032382E0FB68DB8E9BB2002BA4
:10456000C7D153E0FB685B68002B02D07B8B012B2B
:1045700047D1FB681A6BFB681B680C3312781A7002
:10458000FB681B6B5A1CFB681A63FB68DB8E9BB2D3
:10459000013B9AB2FB68DA8633E0FB681B689B68D4
:1045A00003F00203022B13D1FB681A6BFB681B6834
:1045B0000C3312781A70FB681B6B5A1CFB681A6369
:1045C000FB68DB8E9BB2013B9AB2FB68DA8618E08F
:1045D000FCF7E4FC0246FB69D31A3A689A4203D816
:1045E0003B68B3F1FF3F02D13B68002B09D1FB6868
:1045F000012283F85120FB68002283F85020032316
:104600002DE0FB68DB8E9BB2002BC6D1FA693968BE
:10461000F86800F0B1F80346002B02D0FB682022B6
:104620005A65FB689B68002B0AD100237B61FB68FD
:104630001B68DB687B61FB681B689B687B617B692F
:10464000FB68012283F85120FB68002283F8502088
:10465000FB685B6D002B01D0012300E000231846AE
:104660002037BD4680BD000080B588B000AFF8603F
:10467000B9603B601346FB71FCF790FC0246BB6AD5
:104680009B1A3A681344FB61FCF788FCB861394B0C
:104690001B685B011B0DFA6902FB03F37B6155E0AC
:1046A0003B68B3F1FF3F51D0FCF778FC0246BB6991
:1046B000D31AFA699A4202D9FB69002B3DD1FB68F3
:1046C0001B685A68FB681B6822F0E0025A60FB68AE
:1046D0005B68B3F5827F11D1FB689B68B3F5004F2F
:1046E00004D0FB689B68B3F5806F07D1FB681B683B
:1046F0001A68FB681B6822F040021A60FB689B6A1C
:10470000B3F5005F0FD1FB681B681A68FB681B6874
:1047100022F400521A60FB681B681A68FB681B6869
:1047200042F400521A60FB68012283F85120FB68B2
:10473000002283F85020032318E07B69002B02D16C
:104740000023FB6102E07B69013B7B61FB681B6826
:104750009A68BB681340BA689A420CBF01230023D1
:10476000DBB21A46FB799A429AD1002318462037C9
:10477000BD4680BD0000002080B588B002AFF86063
:10478000B9607A607B680093BB6801220221F868F7
:10479000FFF76AFF0346002B07D0FB685B6D43F011
:1047A0002002FB685A65032332E01B4B1B681B4A3F
:1047B000A2FB03235B0D4FF47A7202FB03F37B61D0
:1047C000FB685B68B3F5827F12D17B680093BB689E
:1047D00000228021F868FFF747FF0346002B16D020
:1047E000FB685B6D43F02002FB685A6503230FE012
:1047F0007B69002B0AD07B69013B7B61FB681B68EE
:104800009B6803F08003802BF2D000E000BF002300
:1048100018461837BD4680BD00000020819F5E16F7
:1048200080B582B000AF78607B68002B01D1012396
:1048300042E07B6893F84130DBB2002B06D17B6805
:10484000002283F840207868FCF784FA7B682422F1
:1048500083F841207B681B68DA687B681B6822F458
:104860000052DA60786800F073F97B681B681A6997
:104870007B681B6822F490421A617B681B685A6946
:104880007B681B6822F02A025A617B681B68DA6821
:104890007B681B6842F40052DA607B6800225A642D
:1048A0007B68202283F841207B68202283F8422005
:1048B0007B6800225A63002318460837BD4680BD36
:1048C00080B58AB002AFF860B9603B601346FB80E8
:1048D00000237B61FB6893F84130DBB2202B75D15C
:1048E000BB68002B02D0FB88002B01D101236EE0B6
:1048F000FB6800225A64FB68212283F84120FCF700
:104900004DFB7861FB68FA889A84FB68FA88DA8440
:10491000FB689B68B3F5805F08D1FB681B69002BBF
:1049200004D10023FB61BB68BB6103E0BB68FB6192
:104930000023BB612EE03B6800937B69002280214D
:10494000F86800F048F80346002B05D0FB682022E9
:1049500083F8412003233AE0FB69002B0BD1BB69AC
:104960001B881A46FB681B68C2F308025A60BB69C1
:104970000233BB6107E0FB691A78FB681B685A6069
:10498000FB690133FB61FB68DB8C9BB2013B9AB294
:10499000FB68DA84FB68DB8C9BB2002BCBD13B68D5
:1049A00000937B6900224021F86800F014F8034668
:1049B000002B05D0FB68202283F84120032306E06A
:1049C000FB68202283F84120002300E002231846E0
:1049D0002037BD4680BD80B586B000AFF860B960B5
:1049E0003B601346FB713BE03B6AB3F1FF3F37D0BE
:1049F000FCF7D4FA02463B68D31A3A6A9A4202D3C9
:104A00003B6A002B01D103233AE0FB681B68DB689B
:104A100003F00403002B23D0BB68802B20D0BB689D
:104A2000402B1DD0FB681B681B6803F00803082B94
:104A300016D100237B61FB681B681B687B61FB68E8
:104A40001B685B687B617B69F86800F01DF8FB6898
:104A500008225A64FB68002283F8402001230FE0FB
:104A6000FB681B681A68BB681340BA689A420CBF9F
:104A700001230023DBB21A46FB799A42B4D000230B
:104A800018461837BD4680BD80B495B000AF786039
:104A90007B681B680C337B637B6B53E8003F3B6395
:104AA0003B6B23F49073FB647B681B680C33FA6CDC
:104AB0003A64FB63F96B3A6C41E80023BB63BB6B60
:104AC000002BE5D17B681B6814333B623B6A53E8DB
:104AD000003FFB61FB6923F00103BB647B681B683B
:104AE0001433BA6CFA62BB62B96AFA6A41E800230D
:104AF0007B627B6A002BE5D17B681B6B012B19D194
:104B00007B681B680C33FB60FB6853E8003FBB60AD
:104B1000BB6823F010037B647B681B680C337A6CE2
:104B2000BA617B617969BA6941E800233B613B69FD
:104B3000002BE5D17B68202283F842207B6800228D
:104B40001A6300BF5437BD465DF8047B7047000010
:104B50002DE9B04FC0B000AFC7F8F400D7F8F4307B
:104B60001B681B6923F44050D7F8F430D968D7F894
:104B7000F4301A6840EA01031361D7F8F4309A68F8
:104B8000D7F8F4301B691A43D7F8F4305B691A433D
:104B9000D7F8F430DB691343C7F8F830D7F8F430AE
:104BA0001B68DB6823F4164121F00C01D7F8F430C0
:104BB0001A68D7F8F8300B43D360D7F8F4301B6885
:104BC0005B6923F44070D7F8F4309969D7F8F43072
:104BD0001A6840EA01035361D7F8F4301A688F4B22
:104BE0009A4205D0D7F8F4301A688D4B9A4204D116
:104BF000FEF78AFEC7F8FC0003E0FEF771FEC7F877
:104C0000FC00D7F8F430DB69B3F5004F40F00C81BD
:104C1000D7F8FC300022C7F8E830C7F8EC20D7E915
:104C20003A4522462B469118B9655B41FB65D7E9A9
:104C30001623214612EB0108294643EB01094FF0E8
:104C400000024FF000034FEAC90343EA58734FEAEA
:104C5000C80290469946234618EB0303C7F8E03094
:104C60002B4649EB0303C7F8E430D7F8F4305B6810
:104C70000022C7F8D830C7F8DC20D7E936120B4637
:104C8000DB183B65134642EB03037B65D7E914232E
:104C9000D7E93801FBF7F2FB02460B46614BA3FB59
:104CA00002235B091C01D7F8FC300022C7F8D03082
:104CB000C7F8D420D7E9348942464B469118B964E5
:104CC0005B41FB64D7E91223414612EB010A4946D6
:104CD00043EB010B4FF000024FF000034FEACB0310
:104CE00043EA5A734FEACA0292469B4643461AEB7E
:104CF0000303C7F8C8304B464BEB0303C7F8CC306F
:104D0000D7F8F4305B680022C7F8C030C7F8C42079
:104D1000D7E930120B46DB183B64134642EB030322
:104D20007B64D7E91023D7E93201FBF7A7FB0246E2
:104D30000B4611463B4BA3FB01235B09642202FB9C
:104D400003F3CB1ADB0003F13202364BA3FB022341
:104D50005B095B0003F4F8731C44D7F8FC300022B5
:104D6000C7F8B830C7F8BC20D7E92E8942464B4671
:104D70009118B9635B41FB63D7E90E234146511893
:104D8000396349464B417B634FF000024FF000030B
:104D9000D7E90CAB5946CB00514643EA5173514613
:104DA000CA0010461946034642469B18C7F8B03061
:104DB0004B460A4642EB0303C7F8B430D7F8F43049
:104DC0005B680022C7F8A830C7F8AC20D7E92A12E0
:104DD0000B46DB18BB62134642EB0303FB62D7E9C9
:104DE0000A23D7E92C01FBF749FB02460B460D4B82
:104DF000A3FB02135B09642101FB03F3D31ADB005D
:104E00003233084AA2FB03235B0903F00702D7F8F9
:104E1000F4301B6822449A6006E100BF0010014094
:104E2000001401401F85EB51D7F8FC300022C7F871
:104E3000A030C7F8A420D7E9288942464B469118EC
:104E400039625B417B62D7E90823414654184946E1
:104E500043EB01054FF000024FF00003EB0043EA83
:104E60005473E20014461D464346E318C7F89830D1
:104E70004B4645EB0303C7F89C30D7F8F4305B682A
:104E80000022C7F89030C7F894204FF000024FF08E
:104E90000003D7E9244529468B00214643EA917354
:104EA00021468A00D7E92601FBF7E8FA02460B46BD
:104EB000604BA3FB02235B091C01D7F8FC300022E6
:104EC000C7F88830C7F88C20D7E9228942464B467C
:104ED0009118B9615B41FB61D7E90623414651183E
:104EE000396149464B417B614FF000024FF00003AE
:104EF000D7E904AB5946CB00514643EA51735146BA
:104F0000CA0010461946034642469B18C7F880302F
:104F10004B460A4642EB0303C7F88430D7F8F43017
:104F20005B680022BB67FA674FF000024FF0000396
:104F3000D7E91E8949468B00414643EA91734146B1
:104F40008A00D7E92001FBF799FA02460B46114681
:104F5000384BA3FB01235B09642202FB03F3CB1A4A
:104F60001B013233334AA2FB03235B0903F0F00336
:104F70001C44D7F8FC3000223B677A67D7E91C89CC
:104F800042464B469118B9605B41FB60D7E902236A
:104F900041465118396049464B417B604FF0000251
:104FA0004FF00003D7E900AB5946CB00514643EA26
:104FB00051735146CA0010461946034642469B1893
:104FC000BB664B460A4642EB0303FB66D7F8F43058
:104FD0005B6800223B667A664FF000024FF00003E8
:104FE000D7E9188949468B00414643EA9173414607
:104FF0008A00D7E91A01FBF741FA02460B460D4B2E
:10500000A3FB02135B09642101FB03F3D31A1B0109
:105010003233084AA2FB03235B0903F00F02D7F8DF
:10502000F4301B6822449A6000BF07F58077BD46C4
:10503000BDE8B08F1F85EB51F8B500BFF8BC08BCC8
:105040009E467047F8B500BFF8BC08BC9E46704746
:105050005541525431206361707952656164790D14
:105060000A00000048656C6C6F2066726F6D2053FB
:10507000544D33322055415254310D0A0000000086
:1050800053504932206361707952656164790D0A29
:10509000000000004932433120636170795265613C
:1050A00064790D0A0000000048656C6C6F20667220
:1050B0006F6D2053544D333220535049320D0A0046
:1050C00048656C6C6F2066726F6D2053544D33329F
:1050D00020493243310D0A000000000000000000AA
:1050E000010203040607080900000000010203048E
:0850F00010B2FF7F0100000077
:0450F8006902000841
:0450FC004102000865
:0C5100000024F40010000000010000007A
:0400000508000E7D64
:00000001FF
